:100000000C9462000C948A000C948A000C948A0070
:100010000C948A000C948A000C948A000C948A0038
:100020000C948A000C948A000C948A000C948A0028
:100030000C948A000C948A000C948A000C948A0018
:100040000C94D6020C948A000C9446030C94200362
:100050000C948A000C948A000C948A000C948A00F8
:100060000C948A000C948A000000000024002700F1
:100070002A0000000000250028002B0000000000DE
:1000800023002600290004040404040404040202DA
:100090000202020203030303030301020408102007
:1000A0004080010204081020010204081020000012
:1000B0000008000201000003040700000000000027
:1000C0000000120611241FBECFEFD8E0DEBFCDBF67
:1000D00011E0A0E0B1E0E8E9FCE002C005900D927B
:1000E000A239B107D9F722E0A2E9B1E001C01D921F
:1000F000A833B207E1F710E0C2E6D0E004C02197D0
:10010000FE010E943F06C136D107C9F70E9478035D
:100110000C944A060C940000833081F028F481305E
:1001200099F08230A1F008958730A9F08830B9F0B5
:100130008430D1F4809180008F7D03C08091800055
:100140008F7780938000089584B58F7702C084B53F
:100150008F7D84BD08958091B0008F7703C080911A
:10016000B0008F7D8093B0000895CF93DF93E8EBCC
:10017000F0E08491E4EAF0E0D491E0E9F0E0C491A9
:10018000CC2391F081110E948C00EC2FF0E0EE0F57
:10019000FF1FE458FF4FA591B491EC91ED2381E04E
:1001A00090E021F480E002C080E090E0DF91CF9108
:1001B00008951F93CF93DF93282F30E0F901E25584
:1001C000FF4F8491F901E656FF4FD491F901EA57A8
:1001D000FF4FC491CC23C1F0162F81110E948C00D7
:1001E000EC2FF0E0EE0FFF1FEE58FF4FA591B491FA
:1001F0009FB7F894111104C08C91D095D82302C0F8
:10020000EC91DE2BDC939FBFDF91CF911F9108957E
:10021000CF93DF9390E0FC01E656FF4F2491FC0161
:10022000EA57FF4F8491882361F190E0880F991F6E
:10023000FC01E859FF4FC591D491FC01EE58FF4FE6
:10024000A591B491611109C09FB7F8948881209558
:1002500082238883EC912E230BC0623061F49FB718
:10026000F8948881322F309583238883EC912E2B4C
:100270002C939FBF06C08FB7F894E8812E2B28835C
:100280008FBFDF91CF9108953FB7F8948091970188
:1002900090919801A0919901B0919A0126B5A89BDF
:1002A00005C02F3F19F00196A11DB11D3FBFBA2F08
:1002B000A92F982F8827820F911DA11DB11DBC0168
:1002C000CD0142E0660F771F881F991F4A95D1F72D
:1002D0000895CF92DF92EF92FF920E9444016B014A
:1002E0007C010E944401DC01CB018C199D09AE09FF
:1002F000BF09883E9340A105B10598F3FF90EF90A8
:10030000DF90CF900895CF92DF92EF92FF920F93FC
:100310001F93CF93DF936C017A018B01C0E0D0E093
:10032000CE15DF0581F0D8016D918D01D601ED91DB
:10033000FC910190F081E02DC6010995892B11F007
:100340002196EECF7E01C701DF91CF911F910F91D2
:10035000FF90EF90DF90CF900895089580E090E0B7
:100360000895FC01538D448D252F30E0842F90E0BB
:10037000821B930B541710F0CF96089501970895A0
:10038000FC01918D828D981761F0828DDF01A80F9D
:10039000B11D5D968C91928D9F5F9F73928F90E0BF
:1003A00008958FEF9FEF0895FC01918D828D98172E
:1003B00031F0828DE80FF11D858D90E008958FEF6B
:1003C0009FEF0895FC01918D228D892F90E0805C34
:1003D0009F4F821B91098F73992708958BE991E0B4
:1003E0000E94E20121E0892B09F420E0822F089588
:1003F000FC01848DDF01A80FB11DA35ABF4F2C91C2
:10040000848D90E001968F739927848FA689B78990
:100410002C93A089B1898C91837080648C93938D87
:10042000848D981306C00288F389E02D80818F7D2A
:1004300080830895EF92FF920F931F93CF93DF93E2
:10044000EC0181E0888F9B8D8C8D981305C0E88925
:10045000F989808185FD26C0F62E0B8D10E00F5F97
:100460001F4F0F731127E02E8C8DE8120CC00FB6B2
:1004700007FCFACFE889F989808185FFF5CFCE01A5
:100480000E94F801F1CF8B8DFE01E80FF11DE35AB8
:10049000FF4FF0829FB7F8940B8FEA89FB89808128
:1004A00080620AC09FB7F894EE89FF896083E8896B
:1004B000F98980818370806480839FBF81E090E0B0
:1004C000DF91CF911F910F91FF90EF900895CF93FF
:1004D000DF93EC01888D8823C9F0EA89FB8980814C
:1004E00085FD05C0A889B9898C9186FD0FC00FB61E
:1004F00007FCF5CF808185FFF2CFA889B9898C915F
:1005000085FFEDCFCE010E94F801E7CFDF91CF91BB
:10051000089580E090E0892B29F00E94EE0181117E
:100520000C9400000895682F88E00E94D90061E0D3
:1005300089E00E94D9000E94690160E089E00E9480
:10054000D9000C946901009769F0FC01019000202A
:10055000E9F73197AF01481B590BBC018BE991E0DA
:100560000C94830180E090E00895CF93DF930E9484
:10057000A302EC0182E191E00E94A3028C0F9D1F77
:10058000DF91CF910895CF93DF93682F8BE991E0AE
:100590000E941A02EC0182E191E00E94A3028C0FFA
:1005A0009D1FDF91CF9108950E9445061F920F92E3
:1005B0000FB60F9211242F933F938F939F93AF9376
:1005C000BF938091930190919401A0919501B09176
:1005D00096013091920123E0230F2D3720F40196EC
:1005E000A11DB11D05C026E8230F0296A11DB11D56
:1005F000209392018093930190939401A09395018D
:10060000B09396018091970190919801A0919901E2
:10061000B0919A010196A11DB11D8093970190930D
:100620009801A0939901B0939A01BF91AF919F91C6
:100630008F913F912F910F900FBE0F901F901895A3
:100640001F920F920FB60F9211242F933F934F9347
:100650005F936F937F938F939F93AF93BF93EF932A
:10066000FF938BE991E00E94F801FF91EF91BF9118
:10067000AF919F918F917F916F915F914F913F913A
:100680002F910F900FBE0F901F9018951F920F92F1
:100690000FB60F9211242F938F939F93EF93FF9395
:1006A000E091AB01F091AC018081E091B101F0915A
:1006B000B20182FD12C090818091B4018F5F8F736F
:1006C0002091B501821751F0E091B401F0E0E556B8
:1006D000FE4F958F8093B40101C08081FF91EF910F
:1006E0009F918F912F910F900FBE0F901F90189593
:1006F000CF93DF93CDB7DEB7A1970FB6F894DEBFE7
:100700000FBECDBF789484B5826084BD84B581600E
:1007100084BD85B5826085BD85B5816085BD8091CC
:100720006E00816080936E00109281008091810044
:10073000826080938100809181008160809381003C
:10074000809180008160809380008091B1008460FE
:100750008093B1008091B00081608093B00080915F
:100760007A00846080937A0080917A00826080931E
:100770007A0080917A00816080937A0080917A007B
:10078000806880937A001092C100E091AB01F091F3
:10079000AC0182E08083E091A701F091A801108272
:1007A000E091A901F091AA018FEC80831092B3012E
:1007B000E091AF01F091B00186E08083E091AD015E
:1007C000F091AE01808180618083E091AD01F09174
:1007D000AE01808188608083E091AD01F091AE012F
:1007E000808180688083E091AD01F091AE018081CD
:1007F0008F7D808361E088E00E94080161E089E0EC
:100800000E94080160E08AE00E94080161E08BE03C
:100810000E94080185E191E00E94B50288E291E022
:100820000E94B50284E391E00E94B50283E491E066
:100830000E94B50285E591E00E94B5028BE991E046
:100840000E94E201181619060CF0E9C18BE991E04B
:100850000E94C001182F81E00E94930281E00E9453
:10086000930281E00E94930281E00E94930281E062
:100870000E949302143609F084C084E60E94C302E9
:1008800080E00E94930281E00E94930281E00E9436
:10089000930280E00E94930280E00E94930261E054
:1008A0008BE00E94D90080E00E94930260E08BE020
:1008B0000E94D90080E00E94930280E00E9493028F
:1008C00080E00E94930281E00E94930281E00E94F6
:1008D000930280E00E94930281E00E94930280E0F4
:1008E0000E94930280E00E949302C12CD12C7601D9
:1008F00000E010E061E089E00E94D9000E946901F7
:100900000E94B500092E000CAA0BBB0B002E04C0E0
:10091000880F991FAA1FBB1F0A94D2F7C82AD92A89
:10092000EA2AFB2A0F5F1F4F60E089E00E94D9008E
:100930000E94690100321105E9F619A2CE018196E3
:10094000B701A6014F7055276627772724E0F69454
:10095000E794D794C7942A95D1F701974A3014F4B5
:10096000405D01C0495CFC014083C114D104E10435
:10097000F10431F70E94A30282E191E00E94A302F8
:100980004EC1123609F07DC082E60E94C30280E0AB
:100990000E94930281E00E94930281E00E949302F0
:1009A00080E00E94930280E00E94930260E08BE06E
:1009B0000E94D90080E00E94930261E08BE00E94D7
:1009C000D90080E00E94930261E08BE00E94D90090
:1009D00080E00E94930260E08BE00E94D90080E0FA
:1009E0000E94930260E08BE00E94D90081E00E94A7
:1009F000930281E00E94930280E00E94930280E0D3
:100A00000E94930281E00E94930280E00E94930280
:100A100080E00E94930200E010E060E08BE00E9422
:100A2000D90061E089E00E94D9000E9469010F5F4E
:100A30001F4F60E089E00E94D9000E9469010330E5
:100A4000110571F00339110541F760E08BE00E9458
:100A5000D90081E00E94930281E00E949302DFC0EE
:100A60000E94B500019721F487E691E00E94B5024B
:100A70000E94B500892B89F68CE791E00E94B502AF
:100A8000CCCF113309F068C080E00E94930281E06E
:100A90000E94930281E00E94930280E00E949302F0
:100AA00080E00E94930260E08BE00E94D90080E029
:100AB0000E94930261E08BE00E94D90080E00E94D6
:100AC000930261E08BE00E94D90080E00E949302D3
:100AD00060E08BE00E94D90080E00E94930260E019
:100AE0008BE00E94D90081E00E94930281E00E9485
:100AF000930280E00E94930280E00E94930281E0D2
:100B00000E94930280E00E94930280E00E94930280
:100B100000E010E060E08BE00E94D9000D37110585
:100B200024F461E08BE00E94D90080E00E949302EF
:100B300080E00E9493020E5F1F4F0439110551F7A8
:100B400061E08BE00E94D90081E00E94930281E085
:100B50000E94930281E361C0103309F060C080E01D
:100B60000E94930281E00E94930281E00E9493021E
:100B700080E00E94930280E00E94930260E08BE09C
:100B80000E94D90080E00E94930261E08BE00E9405
:100B9000D90080E00E94930261E08BE00E94D900BE
:100BA00080E00E94930260E08BE00E94D90080E028
:100BB0000E94930260E08BE00E94D90081E00E94D5
:100BC000930281E00E94930280E00E94930280E001
:100BD0000E94930281E00E94930280E00E949302AF
:100BE00080E00E94930200E010E060E08BE00E9451
:100BF000D90080E00E9493020F5F1F4F0632F1E0A0
:100C00001F0799F760E08BE00E94D90081E00E9405
:100C1000930281E00E94930280E30E94C3020E943B
:100C200089020CCEEBE9F1E01382128288EE93E0A8
:100C3000A0E0B0E084839583A683B78384E091E04D
:100C40009183808385EC90E09587848784EC90E0A5
:100C50009787868780EC90E0918B808B81EC90E089
:100C6000938B828B82EC90E0958B848B86EC90E06A
:100C7000978B868B118E128E138E148E0895EE0F25
:100C8000FF1F0590F491E02D099481E090E0F89425
:080C90000C944A06F894FFCF12
:100C9800000000001A028301B1016702E201C001ED
:100CA800D4010D0A004573636F6C686120756D206F
:100CB800636F6D616E646F00313A4C6967617220D1
:100CC8004C454400313A4465736C69676172204C45
:100CD800454400643A696D7072696D6972204944CF
:100CE800434F444500623A65737461646F20646FD2
:100CF80020626F74616F00426F74616F2065737456
:100D08006120706172612063696D6100426F746176
:100D18006F20657374612070617261206261697807
:020D28006F005A
:00000001FF
